:020000040000fa
:080000000002040000000000f2
:020000040000fa
:100400004fe720000e7f24000e018800000000004e
:100410000c00070060ce250001002000110007003d
:10042000000020000000e000020032000000020096
:1004300000000000fc4e0200000000000040da0056
:100440000000fe004440a900207d20000000e000e4
:100450000300320000002000a00188004440a800f2
:100460000000060091018800800078000000eb0089
:1004700015003700e280400032a0b4009101ba00bc
:10048000e280400032a0b4009102ba00e280400055
:1004900032a0b4000002eb00472bde00f507b200eb
:1004a000602ce10004003a000059eb008301e900f0
:1004b000fdff3e00040037006128e100010032002a
:1004c0000082eb00040007001101ba000200e00006
:1004d000e8ff3a00000006003159ba008301e90044
:1004e0000c0032002159ba008301e90008003200f3
:1004f0000400e00003003a00e280400032a0b400b3
:10050000f5ff370011d9ba008301e900faff3a007c
:100510008100e800e180400032a0b4000000060045
:100520000040da000000fe0020c2bf00664060000c
:10053000e64f500002003a00301180000000060033
:1005400030118000f00fb2000000060003f0a2009e
:10055000889fbe008a9fbe008c1f7800f0000700b5
:10056000f70033006450e1004f0032006420e100e6
:100570005200320003826c0007003b000905d000e6
:100580000306d000820f54000c065d000200390003
:100590000200320089017800030678008582550048
:1005a00004003d000003fd008103fd008502ea0018
:1005b0008b854200840f720002003b006000100037
:1005c000e08018006011b8000005eb007a28e10017
:1005d0000a00390006007800c75ddd00f707b200a9
:1005e000878075002d003700828171000a01780034
:1005f000610560008180d1000080d3008502e900a0
:10060000f9ff3b00060440008784480002003b00dd
:1006100060041400e0841c000988a3000700320075
:100620008a81710082817100610164008904d100b6
:100630000884d3008b05e800170037000978a30071
:1006400013003a000b00e000130034008b05e900b2
:100650000804440089844c000a4474000978a3000b
:100660000d003a000b00e000070034008b05e900a4
:100670000804440089844c0001003a000b0020006b
:100680000978a300f7ff32000001eb0002003700f9
:10069000828171000a0178007b0007000cf0a7003e
:1006a00001f0a000af0037006420e10002003a0032
:1006b000838f6c00af0033000801be000200be0053
:1006c000a8003700889fbe008a9fbe008c1f78005c
:1006d000930007009a00330003866c006450e10029
:1006e0002e0032006420e100330032006150e1004e
:1006f0002f0032006120e100310032008585550075
:10070000eb07b000090020000804200005003700b6
:100710000804440089844c000a00310006034300a9
:1007200087834b000001530081815b00f8ff330099
:100730000203be000800a0000804440089844c00a5
:10074000f6ff3900c639dd00830173000100320075
:10075000130020008904d1000884d3000998a30065
:10076000050032000800a7000300a0008904d100a2
:100770000884d3008b05e8008904d1000884d300e5
:100780000001eb000281d2003f00070001f0a10050
:100790000cf0a70001f0a000720037006420e10017
:1007a000740032000801be000200be00f7ff3700ef
:1007b0006120e1006f0032006000b800f3ff3700f5
:1007c0000000200001f82700f0ff3700140020008f
:1007d000af003700f4ff2f00ad003700889fbe0048
:1007e0008a9fbe00010578000100e000040035008a
:1007f00008003c000000e000200032000500370047
:1008000060001000e080180002003b0001f02c00a6
:100810001a0037000004be006011b8006b09200008
:100820000982cf00020039000882cf000441b000e5
:10083000694252000e00320008003b0082817100c4
:10084000610164008904d1000884d3008b05e800ad
:100850000442e800f9ff3a000500370008044400ac
:1008600089844c008b05e9000442e900fbff3a0053
:10087000050007000af0a70001f0a0004f05be0028
:100880004f04be000000060081002000618055007a
:100890000b003d000b00200061fe2f000100e10075
:1008a0001d00340082817100610164008904d1005f
:1008b0000884d3000000e800faff3a00710020002d
:1008c0006100640003007000020060000900320053
:1008d00061044400e0844c000988a5000500320052
:1008e0008b05e8006808e10002003a008904d100a5
:1008f0000884d300f20f20000258e10005003d00fb
:10090000c75ddd00f907b200898075000800780036
:10091000000006000bf827008b007800000005009f
:100920000004be00750007000003be000405be0001
:100930000200be0071000700844f75000000060031
:100940000200be006450e100050036006420e100b2
:10095000020036000968a30001003a000800be004a
:100960000160a0004f0678004f05be004f04be0096
:1009700000000600f0ff2f00f1ff2700f9ff37000d
:10098000889fbe008a9fbe008c1f7800e4ff07008e
:10099000ebff330003866c006450e100240032005a
:1009a0006420e100270032006150e10022003200a3
:1009b0006120e100210032008b854200eb07b1008d
:1009c0000134b800003ab8000804420089844a00a3
:1009d000013ab8000030b8008880400009014a00a0
:1009e00004003300000040008180480002014900fb
:1009f0008b05e900c909dd008301700001003200a8
:100a000013002000c814de004814dd004709de0092
:100a10001200b200c808de00088470009aff0700c8
:100a200001f0a1000cf0a70001f0a000cdff3700fd
:100a30006120e100cfff32000801be000200be00cd
:100a4000f7ff37006150e100fcff3a00c9ff3700b3
:100a50006022b800060220000000d0008180d20091
:100a60000482d2008582d2000000a000020252005f
:100a700083825a00030031000202420083824a004e
:100a80000000a1000603e900f3ff3a0000000600a1
:100a9000889fbe008a9fbe00841f7800a0ff0700c9
:100aa0004f00780011003300f0ff2f00838f6c009f
:100ab00006003b00040565000a00a7000800370097
:100ac00009f0a6001000200008003700820f540033
:100ad000838f5c00030039001000200001003e00fd
:100ae0000000200009f0a7000000ea004f05be004a
:100af0004f04be000000e00000000600c70ade0050
:100b0000f107b200f50fb20008003200e1cf420059
:100b1000020032000170a00024000500810f700067
:100b2000010032000408050044000500810f700038
:100b300002003a00140005008502e90000004000b0
:100b400081c04800fcff3b000170a00024000500ac
:100b50008001eb0002003700817178008301e8001a
:100b6000828f5100fcff3a00000006000000fa00ee
:100b7000cfb897006881570040e520005900070072
:100b80000080fa0000000600889fbe008a1f7800df
:100b9000804078000004e00021003d008040ea0031
:100ba000d0c6b30080cf5000090034008104fb00a0
:100bb00042062000110009008204d80000017800dc
:100bc000010078004311dd00cac120001f0037007a
:100bd0000100fb00c3c1200039003700a200200043
:100be000110009000200d80000017800010078001f
:100bf0004311dd00030141004300dd00030040001c
:100c00003002be002003be0042209000d22090009f
:100c1000f221900062219000a90707002e00370002
:100c2000d0c6b30080cf5000230034008104fb0005
:100c300042062000110009008204d800000178005b
:100c4000010078004311dd00cacc20000a014100f8
:100c5000a8002000110009000800d8004300dd00b2
:100c60000a00400040229000d022900060239000b3
:100c7000f02390000288900092889000b289900042
:100c8000228990008e070700801f780001027800fb
:100c9000110009008804d8000102fd004f0078000f
:100ca0000402fb004322dd000a0242005403be009e
:100cb0004402be00d8ff37000100fb00c3cc200077
:100cc000eacf5000c5ff3c004300dd0003004000b8
:100cd0005001be004000be004f0578004f04be002a
:100ce000000006008f03b000889fbe008a9fbe00f0
:100cf0008c9fbe008e1f7800e0b79f00f1b79f0069
:100d000082bf9f000000eb00a0b79f00e604370001
:100d10008001eb0050c2b30080cf500009003200c8
:100d20000100fb00efb09700ec040700e10f40006a
:100d3000dd043200afb097008100e800a1b79f004a
:100d4000d90437007fb1970092407800d0c2b30039
:100d500080cf50000c00320007003c006d40500076
:100d600080cf50000d0032006b40400080cf50001b
:100d700019003a000e00370000c3b30080cf5000c6
:100d800015003a000f0037000330a0007fb2970033
:100d90000402e800f4b79f00eaff37000300a00058
:100da000ffb297008502e800f5b79f00e5ff370026
:100db0000310a0007fb697000c06e800fcb79f0068
:100dc000e0ff37000320a0007fb097000000e8009c
:100dd000f0b79f00dbff37000318a30001003200cb
:100de0000300a1000338a300010032000320a1008a
:100df0000100fb0002fd2f0002004000e90f50003f
:100e000010003e008000eb00c1b79f000202780096
:100e10004fb197006a10b900ffb297001501fb00af
:100e20000001410004014100c2b79f005500fb00d2
:100e3000f5b79f0004004000e90f50000d003e0090
:100e4000f3ff37000006eb00ccb79f00a0c2b30051
:100e500080cf500007003a000fb89700c00078001c
:100e600080bf9f00c1b79f007fb197000201e800db
:100e7000f2b79f00e0c2b3007fb29700944f10001a
:100e800021003a00830678000de0a0008400e8000d
:100e900064405000914f100004003200f1b79f00f1
:100ea0008002eb00b5b79f00100037000fbe97001f
:100eb0004c0078008cbf9f00b0b79f00ffb0970038
:100ec0008180e800f1b79f00130037003fb2970020
:100ed0006a20b9000000410003004000b0b79f0045
:100ee000ffb297008502e800f5b79f007fb6970034
:100ef0001c01fb0003fd2f0003004100e90f50001f
:100f0000f2ff360004003700830678000dc0a00011
:100f10000000eb00b0b79f007fb19700b2407800af
:100f2000f2b79f00c17f9f00c0c6b30080cf5000c2
:100f30002700320014003c006840500080cf500071
:100f40009d00320009003c006c40500080cf5000f2
:100f5000290032006b40400080cf50007200320008
:100f60000104e000560432008e00370060c6b30072
:100f700080cf50001c0032006340400080cf500002
:100f800088003a008c00370030c7b30080cf500093
:100f90001c00320007003c006440500080cf50002d
:100fa000130032000040e80080cf50007d003a007e
:100fb0001100370050c7b30080cf50007d003200d1
:100fc0006340400080cf500076003a000b003700ad
:100fd000000028000d48a30001003a000001200095
:100fe00080867600ccff37000da0a000720037008d
:100ff0000d60a000700037000d50a0000d70a00023
:101000006d0037008fb997004300780083bf9f00c1
:10101000000478000000e00001003a00c8e1200070
:101020008004eb00010037008104e80089007800ab
:10103000088044001004e000fbff3a003fb2970034
:101040000400e00003003200890f5200010031006b
:10105000840478000007eb00cfb29700898f52001c
:1010600001003600098752004368de00e106600097
:1010700019003a000d06780009003700efb097001c
:101080000002200015040700e10f400003003200b9
:101090002fb097000000e800a0b79f000c06e80002
:1010a0008e0f5600f5ff3a000087eb000a0037006c
:1010b000880078003100fb0001047800efb0970051
:1010c00006040700e10f400003003200afb09700b4
:1010d0008100e800a1b79f000900e90080047800c2
:1010e000e10f4000f2ff3a000006eb000d00e000c7
:1010f0000a003a00ec033700efb09700000220002e
:10110000f6030700e10f4000030032002fb1970003
:101110000201e800a2b79f000c06e8008e0f5600ff
:10112000f5ff3a00e00337008fb9970043007800dd
:1011300083bf9f00cf80de0001017800820178002c
:101140000205be000004be000203be000002be0095
:101150004822de00482edd0004027600c47f9f0096
:101160000d48a3000a0032000404e0000800320029
:10117000e14f420006003200d1fb2f000180470002
:101180000448780018409800290020000200370029
:10119000d07f9f0019002000d2fb2f00028447005f
:1011a000a6ff3700c3fb2f0003844700190020006f
:1011b000a2ff37000d0cb300007020000082660013
:1011c000270232000dc8a300020032006400200094
:1011d000b4b79f000d48a300050032000fba970076
:1011e0004401be004400be0084bf9f0004003700dd
:1011f0008fba97004500be0085bf9f00a605070077
:10120000e0af9f00f1af9f0082b79f0093b79f00b0
:101210006022b8006033b8006fa89700ffa897005d
:101220000fb197009fb19700ed0407000000e000a8
:101230000a003d006fa89700ffa897000fb1970024
:101240009fb1970003f0a200e0af9f00f1af9f00b5
:1012500082b79f0093b79f003d00b3000000eb00f2
:1012600080a79f006022b8006033b8006fa8970085
:10127000ffa897000fb197009fb197003c050700aa
:101280000000e000340032006fa89700ffa897002c
:101290000fb197009fb197008006070003fc2f0055
:1012a00003814700030607000fa097000000e90034
:1012b0006300b900a2002000110009000200d8005c
:1012c0008000fd0081a79f000100e00002003d00ba
:1012d0000100e90080a79f000fa497000840ea00e2
:1012e00029fe07006faa9700ffaa97000fb3970087
:1012f0009fb39700f2050700a0af9f00b1af9f001a
:10130000c2af9f00d3af9f006022b800060020004c
:1013100007ff2300b20407000000e00002003d00c8
:101320000800e9000b0037006022b800060020002a
:10133000470224002fa89700bfa897004fa9970045
:10134000dfa99700ab0407000000e00002003500b1
:101350000800e80080a79f003fb29700f80f5200f6
:1013600057003c00d0c6b300804f52002900360021
:101370000485fb0042062000110009000285d80008
:1013800000017800010478004311dd00cbc120008a
:101390000b0141006022b8000600200007fe230078
:1013a0000288900092889000b28990002289900073
:1013b000c3050700a9002000809fbe00110009009e
:1013c0000984d800000478004f00be004344dd00cb
:1013d0000b04440048229000d8229000682390001b
:1013e000f8239000b6050700801f780001027800fe
:1013f000110009000985d8000102fd004f007800a6
:101400004322dd000b0242005403be004402be0032
:101410001f0037000480fb00c9c12000ea4f5200c2
:1014200014003600a2002000110009000280d8003c
:1014300000017800010478004311dd00090141003a
:101440006022b8000600200007fe23004220900022
:10145000d2209000f22190006221900098050700b0
:101460004344dd00090444003802be002803be00e6
:10147000070037004300dd00090040006022b8008b
:101480000600200007fe23005001be004000be0001
:101490008b0507000002be000203be006fa8970084
:1014a000ffa897000fb197009fb19700cf030700e7
:1014b000e0af9f00f1af9f0082b79f0093b79f00fe
:1014c0000fa49700e90f540015003c006022b800fb
:1014d0006033b8006fa89700ffa897000fb197007e
:1014e0009fb19700a20407000000e0003200320024
:1014f0006fa89700ffa897000fb197009fb19700c2
:1015000004050700e00f5000e08f5800e00f59007d
:10151000e08f590028003a00e10f54002600340003
:101520000400200005002e00b6e022001701240070
:101530002fa89700bfa897004fa99700dfa9970091
:10154000270407000000e00002003d007300540083
:10155000010037007200540080a79f000fc0970061
:1015600089fd0700a0af9f00b1af9f00c2af9f00f1
:10157000d3af9f000002be000203be006fa8970019
:10158000ffa897000fb197009fb197001e040700b6
:10159000e00407000205be000004be006000b800c1
:1015a0006011b800a0a79f00b1a79f00c2a79f002d
:1015b000d3a79f002e0037006fa89700ffa89700c1
:1015c0000fb197009fb19700d20407000205be003b
:1015d0000004be00e00f5000e08f5800e00f5900fb
:1015e000e08f590002003500fb04070013003700ac
:1015f00010002000010020006011b8000800600009
:10160000898060000a0161008b8161008b03d10039
:101610000a83d3008982d3000882d30000007200bd
:10162000818072000201730083817300ea04070065
:101630000002be000203be006c0307000002be00f1
:101640000203be006fa89700ffa897000fb1970094
:101650009fb197008f050700a0a79f00b1a79f002b
:10166000c2a79f00d3a79f000000eb0080a79f00a8
:1016700014c0b300c5d720000b0037000400fb00e6
:101680004300dd00050040005001be004000be00e8
:101690000040e10001c8e10002d0e10003d8e10010
:1016a000030039000442e800f44f5200f3ff3a000f
:1016b000c47f9f000400fb00bfb097000080400083
:1016c0008fa09700010040004fb197000007510024
:1016d000bfb197000300e000010032000e07e900ef
:1016e00063806600010032000e07e9000d28a300a8
:1016f00026003200e18066000d18a3000c003200c5
:10170000d00220000100e00001003a000080e90062
:10171000efb0970071020700e10f4000180032009f
:101720002fb297000402e800a4b79f00140037000e
:101730000100e00012003200efb09700000220002c
:1017400066020700e10f40000d003200afb29700c3
:101750008502e800a5b79f0009003700efb09700a9
:10176000000320005d020700e10f4000030032008b
:101770002fb697000c06e800acb79f000e07e900f3
:101780000e00e000f5ff3c003d0037000d38a300df
:101790000a0032000b003700efb097000002200073
:1017a0004e020700e10f4000030032002fb0970007
:1017b0000000e800a0b79f000e07e9000e00e0005f
:1017c000f5ff3c00e18066000d18a3000c0032001c
:1017d000d00220000100e00001003a000080e90092
:1017e000efb097003d020700e10f400024003200f7
:1017f000afb097008100e800a1b79f00200037003c
:101800000100e0001e003200efb09700000220004f
:1018100032020700e10f4000190032002fb197009b
:101820000201e800a2b79f00150037000000fb008e
:101830004300dd00c1d72000010040003002be009f
:101840002003be000800be000a01be00e505070037
:10185000a4002000050020006033b800e805070060
:101860000003b000efb097001c020700e10f40003a
:1018700003003200afb197008301e800a3b79f00d7
:101880004f7a97000440e900c07f9f00e14f40007d
:10189000e6ff3a000b003700efb09700000320008e
:1018a0000e020700e10f400003003200afb29700c4
:1018b0008502e800a5b79f000fa097000000e9008f
:1018c00080a79f000fa097000000e000f2ff3c00ff
:1018d0003fb6970020c1b300f20f560001003c0054
:1018e0006fe09700c07f9f00cf7897000100fb005a
:1018f0003fb1970000005100e0a79f000104e00005
:1019000008003200efb09700e0022000f30107006a
:10191000e10f400003003200afb197008301e800ff
:10192000a3b79f004f78970097fc07000002be0006
:101930000203be002fa09700bfa097004fa1970001
:10194000dfa197005e040700f20307001e003700c6
:101950000000fb004300dd00ccd720000c0040005d
:101960003002be002003be000800be000a01be0017
:101970009c050700a4002000050020006033b8008b
:101980009f0507000003b000efb09700d3010700e8
:10199000e10f4000030032002fb297000402e8007c
:1019a000a4b79f00cf7a97000500fb004300dd003d
:1019b0000c0040003002be002003be000800be0044
:1019c0000a01be008e0507000205be000004be002d
:1019d0004f7e97000c40e900c07f9f00e14f400020
:1019e000dbff3a000006eb0009003700efb097007c
:1019f00000032000b9010700e10f4000030032009e
:101a00002fb097000000e800a0b79f000c06e80088
:101a1000efa09700810f5600f4ff3a000d38a300a5
:101a2000a10132000e00e0009f0134000006eb002f
:101a3000efb0970000022000a8010700e10f40006e
:101a4000030032002fb197000201e800a2b79f0007
:101a50000c06e8008e0f560093013200f4ff3700a9
:101a60000d007800000cb20028003a000d00e000e4
:101a700005003d008fb997004305be004304be003a
:101a800083bf9f00140037000d48a3000b003200f5
:101a90000fba97004400be0084bf9f004f89de004c
:101aa000cf91de000002be000203780082037800be
:101ab0000605be000404be00070037008fba970079
:101ac0004500780085bf9f0000047800cfc4de0089
:101ad000090578008a057800e00f5400e08f5c006b
:101ae000e00f5d00e08f5d0020003d003d00b30091
:101af0006000b8006011b8000804500089845800e4
:101b00000a0559008b855900180037000d00e000c8
:101b100005003d000fbe97004c05be004c04be0002
:101b20008cbf9f00110037000d48a3000800320051
:101b30008fba97004500be0085bf9f000401780062
:101b4000840178000205be000004be0007003700d3
:101b50000fbe97004c0078008cbf9f0000047800f7
:101b6000090020000a0020000b0020003fb0970071
:101b70000000e00007003a00e00f5400e08f5c0036
:101b8000e00f5d00e08f5d0002003a0011002000d0
:101b9000b1b79f000d0778000e0cb20000042000c2
:101ba000800f57002f00320003003c000e00e000c1
:101bb000070032003f00370000082000800f570068
:101bc00014003200000c2000800f570039003a004a
:101bd00014c0b300c5d720000b0037000400fb0081
:101be0004300dd00050040005001be004000be0083
:101bf0000040e10001c8e10002d0e10003d8e100ab
:101c00002b0039000442e800f44f5200f3ff3a0081
:101c10002700370000012000010020006011b800fb
:101c200014c0b3000040e10001c8e10002d0e100af
:101c300003d8e1001e003900450020000000d0005c
:101c40008180d2000281d2008381d2008502e90026
:101c5000faff3a000442e800f04f5200f1ff3a0068
:101c60001300370080002000010020006011b80040
:101c700014c0b3000040e10001c8e10002d0e1005f
:101c800003d8e1000a0039003c0020000000d00029
:101c90008180d2000281d2008381d2000c06e9004b
:101ca000faff3a000442e800f54f5200f1ff3a0013
:101cb000c47f9f00cf7897000100fb003fb19700e1
:101cc000820f500002003d00c27f9f0004003700d9
:101cd000bfb19700808f510001003d00b0b79f0059
:101ce0004fb297000400e0000400320063806600f9
:101cf000020032000402e900c4b79f000de8a3000f
:101d00000b003200cfb297003fb697008c8f520085
:101d100003003c000000eb00c0b79f000400370048
:101d2000cfb097003fb1970082805000c1b79f00ad
:101d3000cf7997000300fb000002eb0094a79f00ff
:101d4000cfb29700808f5200020034000080520012
:101d500090a79f000d28a30037003200e1806600a5
:101d60000d18a3000c003200d00220000100e0009a
:101d700001003a000080e900efb09700d7000700ab
:101d8000e10f40000e0032002fb697000c06e8006d
:101d9000acb79f000a0037000100e00008003200e5
:101da000efb0970000022000cc000700e10f4000d8
:101db000030032002fb097000000e800a0b79f009a
:101dc0009fa097000100e0000f0032000006eb002a
:101dd000efb0970000032000c0000700e10f4000b3
:101de000030032002fb197000201e800a2b79f0064
:101df0000c06e8009fa19700830f5600f4ff3a00fd
:101e00000002eb0094a79f00bfb29700c328dd003b
:101e100040d720008080400091af9f004228dd0025
:101e20006400500080af9f006328b900f0a79f00b6
:101e300063065000820037001fa697000c00e000e8
:101e400011003200688066000f003a00000678003a
:101e5000efb0970000022000a0000700e10f400053
:101e6000030032002fb097000000e800a0b79f00e9
:101e70000c06e8009fa09700810f5600f4ff3a007f
:101e80000001eb0092a79f00e18066000d18a300ff
:101e90000c003200d00220000100e00001003a00f6
:101ea0000080e900efb097008c000700e10f4000d0
:101eb000d5ff3200afb197008301e800a3b79f00c0
:101ec000d1ff37000100e000cfff3200efb09700f4
:101ed0000002200081000700e10f4000caff32002d
:101ee0002fb297000402e800a4b79f00c6ff370096
:101ef00000042000800f57003000320003003c0037
:101f00000e00e000070032003d003700000820000e
:101f1000800f570011003200000c2000800f570086
:101f200037003a001fa897003002be002003be0011
:101f30000800be000a01be002a040700a400200019
:101f4000050020006033b8002d04070004c3b3006f
:101f500004424000c47f9f002900370035e2200082
:101f6000d5b79f000d58a30002003a0040e32000bf
:101f7000d0b79f0014002000050020006033b80097
:101f80008fa897008100e900050033000402d0000b
:101f90008582d2000683d2008783d200f9ff370002
:101fa0000800be000a01be000e0407006f006000ba
:101fb0005fb19700624078001000370014002000e5
:101fc000050020006033b8008c0178008301e9002f
:101fd000050033000402d0008582d2000683d200bf
:101fe0008783d200f9ff37000800be000a01be0057
:101ff000fc030700674060000043b000c07f9f0003
:102000004f7a97000400fb00efb097003300070001
:10201000e10f400003003200afb297008502e800f4
:10202000a5b79f001fa897006800500090af9f00c1
:102030008fa89700e480500081af9f006306560090
:10204000d0ff2f003fb197000090b900ffa197008b
:102050000080410063005000800f5600a4ff3a004a
:102060000d38a300100032001fa297000400e0000a
:102070000d0034000006eb00efb0970000022000d6
:1020800016000700e10f400003003200afb29700d6
:102090008502e800a5b79f000c06e8001fa0970086
:1020a000800f5600f4ff3a007fb19700b2407800ed
:1020b000f2b79f00c17f9f000104e00014fb3a00cb
:1020c0002fb097004f0778004f06be004f05be00a7
:1020d0004f04be008f03b10000000600889fbe00c1
:1020e0000001780001047800b10090000118a300fd
:1020f000400032000198a30003003a00180090004d
:102100000000e0003b003a000190a000310498007c
:1021100082047800f90fb200180090000000e0007f
:1021200002003a0028009000000c7800ea8f54006a
:1021300006003a00380090000078a30003003a003f
:1021400088007800d0002000e4ff0700180290000b
:102150006121b90058009000e8009000800f510004
:10216000818f59000b0032000400e8001004980031
:102170001800780009587800000c780011c0b300ee
:1021800000e7200001487800ea8f54000600320082
:10219000190037008800780009407800190007000e
:1021a0008004780014003700380090000088a300f5
:1021b0001100320018019000a80090004800900023
:1021c0005300070098009000810f50000400320077
:1021d000380090000003b300300498008084eb00c6
:1021e0000000eb001004980028009000000c78001c
:1021f000010037008084eb00090078004f04be0026
:10220000000006000200fa00889fbe00a0ff9f00a9
:1022100001047800b1009000810478000904b20044
:10222000020032000000fb00360037000118a30056
:1022300005003a000103b300310498001904980026
:102240000080eb002f003700580090000000e000f5
:1022500006003a004800900012002000e680570077
:102260002b00070019049800240037002800900074
:102270000000e00008003a00c0e6200020049800ba
:10228000000c7800200020005004980010049800f2
:102290000130a0003104980018019000a8009000bf
:1022a000480090001a00070028009000000c7800f9
:1022b0000080eb001004980018007800aff8970039
:1022c00001587800000c78002ff89700ea4f500072
:1022d0000a003a00380090000088a300070032008e
:1022e00018019000a8009000480090000800070026
:1022f00019049800a8009000010c7800aff897002e
:102300000100fb004f04be000080fa000000060040
:102310000a00fa0080017800e20f500028003e0019
:1023200090738000e10f50000800320080232000ed
:102330000000e000050032000423200025232000d7
:10234000462320008001780004003700042220008a
:1023500025222000462220008322200014409000e5
:102360000004e000040035008009eb0014409000f8
:102370000074a00010429800154090000028a300af
:1023800003003a00154090000024a00090429800fd
:102390008001eb0007003700154090000008a30003
:1023a000fdff320063c078000000fb00000b7800e6
:1023b0008301e800828f5100f7ff3a0008003700e0
:1023c00030002000b0bf9f00c3bf9f00d1bf9f005f
:1023d000e2bf9f006a80570000c0da006fb9970023
:1023e000020078000080fa00000006002800fa00d1
:1023f000889fbe008a9fbe008c9fbe0007067800a3
:10240000878669000c003b0003047800870478008d
:1024100008f0a10009f0a100840f5000858f58003a
:10242000860f5900890f5c00030033000cf0a200f6
:1024300001003a000cf0a100fe0007006400e1007a
:102440005f003200780147006408e100610032005b
:102450006c014700748557003200be001201be00b7
:102460003a04be001a05be001e039000be0a90008a
:102470008503530006003d000004fd008104fd00bb
:102480000205fd008305fd008703ea0005037800cf
:102490000df8a3000400320060041400e0841c0066
:1024a00060051d00e0851d006022b8007d0320004e
:1024b0000d38e1008006eb000b0039004433dd00ed
:1024c000f300b20083017300390037008482720088
:1024d0000d027800e10664008b85d1000a85d300e7
:1024e0008984d3000884d3008703e900f7ff3b0009
:1024f00008004000898048000a0149008b8149009a
:1025000004003b0060001000e0801800600119002a
:10251000e08119000358a300090032008d82720087
:1025200084827200610260008301d1000281d300c5
:102530008180d3000080d3000603e8001b00370031
:102540000348a30017003a000600e000170034001b
:102550000603e9000d00a300000048008180480048
:1025600002014900838149000348a3000f003a009b
:102570000600e000090034000603e9000000400006
:1025800081804800020149008381490001003a002e
:102590000003eb000348a300f5ff32006022b800ff
:1025a00002003700848272006182660075000700b5
:1025b00003f0a1000cf0a70003f0a000b100370069
:1025c000640147006408e10002003a000df8a3002e
:1025d000a9003a003200be001201be00a900370077
:1025e0008f1fd100010307008f87e9000000e00082
:1025f00000000600809feb00fc0207008f87e900c7
:102600000000e000000006002800fa00889fbe00dd
:102610008a9fbe008c9fbe0003866b00850007006a
:102620006400e100440032006408e1004a00320026
:102630006100e100460032006108e100490032001b
:10264000ec0647006000b8003d02be003d03be003e
:10265000f48657006011b8003d04be003d05be0081
:102660007d0320000b0037000000a0008d06e9006c
:10267000130032000402420085824a0006034b0028
:1026800087834b0000004000818048000201490020
:10269000838149000802520089825a000a035b00c4
:1026a0008b835b00f0ff3b000802420089824a00f6
:1026b0000a034b008b834b008d06e900edff3a00c7
:1026c0008482720086827200f707b20087827200ed
:1026d00001003200150020001e0490003e0b900007
:1026e00006035400e63fb0000368a3000700320071
:1026f0000000a7000500a0008301d1000281d300e3
:102700008180d3000080d3000603e8008301d1005c
:102710000281d3008180d3000080d3000002eb004f
:102720000482d2001700070003f0a1000cf0a700fc
:1027300003f0a00053003700640247006408e10082
:102740004d0032003400be003401be00f6ff3700f9
:102750006108e100480032006011b8006000b80074
:10276000f1ff370003ff270002002000fbff3700c6
:10277000801feb009d0207008f87e9000000e0004a
:102780000000060018002000570020000804530035
:102790000d003d000600200097fc2f000740e100df
:1027a0001e00340084827200610260008301d10047
:1027b0000281d3008180d3000080d3000804e800a8
:1027c000f8ff3a004700200061046000050474002f
:1027d000040464000d00320061004000e080480005
:1027e00060014900e081490003b8a50007003200fc
:1027f0000603e8006538e10004003a008301d100d7
:102800000281d3008180d3000080d300f87f2000b4
:102810000830e10003003500080378006000b800cc
:102820006011b8004433dd00f300b200830173008f
:1028300000000600680447000294be000094be0039
:10284000fc0447008694be008494be000900780012
:10285000af02070008007800ad0207009900780079
:10286000814f70000b003b000800be00880207008b
:102870004f00b10003003700f3ff2700f2ff2f00e5
:102880006110b9004f06be004f05be004f04be00e8
:102890000080fa00000006008103780097f8070026
:1028a0000001be006000b8000478a30013003a00e5
:1028b0006220e10015003e000d0039008301d100c7
:1028c0000281d3008180d3008301d1000281d30033
:1028d0008180d3008301d1000281d3008180d300a5
:1028e0000538b000c42add00f300b2008381720015
:1028f00007f0a70003f0a00000000600f3ff270088
:10290000f2ff2f006110b900fbff370003ff270023
:10291000f7ff37001400fa00889fbe008a9fbe00b0
:102920008c9fbe000004be000205be006800470088
:102930000a90be000890be00750207000070a70054
:102940000bf0a1000bf8a30020003a009e099000b4
:102950000e099000fe0090006e0090009e02900014
:102960003443200084825200c6ff32000a003c003b
:10297000b4fc2f000428e100140034008301d100ce
:102980000281d3008180d3000080d3008502e8005b
:10299000faff3a00bbff3700b40020000428e10032
:1029a00007003c000000400081804800020149000f
:1029b000838149008502e900faff3a00b1ff370040
:1029c0000300280002002000010037006011b80059
:1029d0006000b800abff3700889fbe00830478001a
:1029e0000300e0002c00350003003c000082700072
:1029f000040271002600320036432000c50020008a
:102a00008383cf000a0039000541b1008283cf00e3
:102a1000070039000541b1008183cf00040039006f
:102a20000541b1008083cf00010039000541b100ac
:102a300085c353006022b800120032000a003b0038
:102a400084827200610260008301d1000281d300a0
:102a50008180d3000080d3000603e8008743e800ac
:102a6000f7ff3a000700370000004000818048006f
:102a700002014900838149000603e9008743e90018
:102a8000f9ff3a003fff070009f0a70003f0a0009c
:102a90004f04be000000060060001000e080180037
:102aa00060011900e0811900d3ff3b00033e2c00b8
:102ab000f7ff3700c0010700050978000000060095
:102ac0002800fa00889fbe008a9fbe008c9fbe002f
:102ad00003866b0057ff07000028a30064003a003c
:102ae0000128a30067003a000008a30062003a0032
:102af0000108a30065003a001e009000be08900087
:102b000081064000ed3fb100f4805700ee019000d7
:102b1000111ab8008e099000311bb8009e09900070
:102b2000311cb800511db800f4855700460007005d
:102b3000fe0190003a0007008b85e8003e00070088
:102b40008e09900040000700ee019000340007005d
:102b50008b85e800380007008e09900040000700d0
:102b60009e0990001b18b800890440000a8548009f
:102b7000fe019000340007008b85e8003800070054
:102b8000ee019000300007008e0990001b18b8007d
:102b9000890440000a8548000a98a30008003a000a
:102ba0000402420085824a0006034b0087834b00e3
:102bb00008044c0089844c000a054d008d06e9008c
:102bc00084827200850273004c3add008502720037
:102bd0000100320015002000443ade001400b2006b
:102be0004538de00cb45dd000b007000c540de003f
:102bf000cb4ddd008b8070004549de00cb55dd00fc
:102c00000b017100c551de000d037800ddfe0700e9
:102c100003f0a1000cf0a70003f0a00019ff37009b
:102c20001b18b8008502400006834800e0834b0073
:102c300060044c00070037001b18b8000603400072
:102c400087834800faff37001b18b800870340004d
:102c500008844800e0844c0060054d000000060038
:102c60001b18b8000804400089844800faff3700a8
:102c70000108a30000ff3a005800be005801be0042
:102c8000e3ff37000008a300fbfe3a0009047800c8
:102c9000f9ff370007f0a200d4fd37001400fa0056
:102ca000889fbe008a9fbe008c9fbe000005be00ac
:102cb0000206be00680047000c90be000a90be00ed
:102cc000930107006400e1001a00320016003e0084
:102cd0006100e1001a0032006e049000fe049000d2
:102ce0000e0b90009e0b90006011b8009e059000a6
:102cf0000b38b100d50120008281710061016400b0
:102d00008703d1000683d3008984d3000884d300cd
:102d10008502e900f8ff3a00dbf607000df0a70096
:102d200001f0a000d7fe3700f1ff2700f0ff2f00d1
:102d3000d4fe370001f8270000002000f7ff37001d
:102d40006000b800f5ff3700881f780000047800a5
:102d50005001be004000be000400400085804800d5
:102d60000601490087814900009cbe000294be0014
:102d70000400e1000588e1000690e1000798e10009
:102d800002003100680044001008e8004f04780099
:102d900000000600f4874700889fbe008a9fbe009f
:102da0008c9fbe008e1f78000205be000004be008e
:102db000d4b79f00e5b79f00f6b79f0087bf9f007d
:102dc0000000eb00c0b79f00b0b79f00a0b79f0006
:102dd00090b79f0080b79f000d042000bfb0970000
:102de0004fb09700000140000000e0000f003d00e0
:102df0004f08de0000007100c0b79f004d000700c3
:102e000001003d00120020005000070001003d00bd
:102e1000120020005500070061000700660007004f
:102e20000f004000c8ff0700220037004f08de00f7
:102e300000067100ccb79f003e00070001003d0076
:102e4000120020004100070001003d001200200098
:102e500046000700520007000fb297009fb297008c
:102e60002fb39700bfb3970059000700000052002e
:102e700081805a0002015b0083815b0080b79f0064
:102e800091b79f00a2b79f00b3b79f000007eb0068
:102e90004f0007000020e10001a8e10002b0e100be
:102ea00003b8e100010031001e0020000e005600b2
:102eb000c0b79f004fb297000400e0000700350044
:102ec00010002000010020006011b800080470000c
:102ed000898470000a0571008b8571008d06e900f8
:102ee000beff3a000400e00003003d00320007008e
:102ef0000f00400094ff07004fa897000000e0007b
:102f000004003a000fb497009fb497002fb59700c4
:102f1000bfb597000800be000a01be004f07780049
:102f20004f06be004f05be004f04be004f01b1006a
:102f3000000006000180400090b79f000001eb00f8
:102f40008fb097000100e000000006000200700052
:102f500090b79f000180400080b79f000001eb0008
:102f6000ffa897000100e0000000060002007000ca
:102f700080b79f00018040006faa9700cf20de003d
:102f800001007000f0af9f00040242000800be0084
:102f90000a01be004f18de000002720000000600a9
:102fa000e4af9f000804440089844c000a054d00ea
:102fb0008b854d00000006003fb29700cfb297000e
:102fc0005fb39700efb3970000fe2f0000000600ec
:102fd0003fb09700cfb097005fb19700efb1970077
:102fe00000000600881f780018002000881f780065
:102ff00068ff07008f87e9004f0478000000060093
:10300000801feb0063ff07008f87e90000000600c8
:10301000889fbe008a9fbe008c1f78000205be00fc
:103020000004be00e00f5000e08f5800e00f590090
:10303000e08f59000c003d006000b8006011b8003e
:1030400008045000898458000a0559008b855900ee
:103050001c0020001f00070008003d0018000700aa
:103060000006eb00050037000006eb001900070022
:1030700002003d000f0007001c0020000800be00f9
:103080000a01be00d7ff07000203be000002be0017
:103090000c00e00001003200060007000400be0042
:1030a0000601be004f0678004f05be004f04be006b
:1030b000000006006000b8006011b8000000370092
:1030c0000402500085825800060359008783590086
:1030d00000000600e00f5200e08f5a00e00f5b0096
:1030e000e08f5b0000000600889fbe008a9fbe0044
:1030f0008c1f78000205be000004be00e00f5000e7
:10310000e08f5800e00f5900e08f59000a003d00a1
:103110006000b8006011b8000804500089845800ad
:103120000a0559008b8559001c0020001800070073
:1031300007003d00050037000006eb001400070003
:1031400003003d006000b8006011b80015000700e2
:103150000800be000a01be00a9ff07000203be006e
:103160000002be000c00e000030032006000b80066
:103170006011b8000b0007000400be000601be008d
:103180004f0678004f05be004f04be000000060049
:10319000e00f5200e08f5a00e00f5b00e08f5b0011
:1031a0000000060004025000858258000603590002
:1031b00087835900000006000003be004ff6070099
:1031c0006220e100020032000600be00050005009a
:1031d000e507b100f107b20004f02300848070001d
:1031e00007f0a70001f0a00024000500889fbe00a2
:1031f0008a9fbe008c9fbe000404be000605be0070
:10320000809fbe00829fbe002f000700040678004a
:103210000800be000a01be002b00070084067800eb
:103220004f03be004f02be008d4f76007fb0970067
:1032300013003300f0ff2f008b8f6b0006003b0064
:103240000d0666000c00a7000a00370007f0a60074
:10325000100020000a003700880f5200898f5a00a2
:103260008a0f5b008b8f5b00030039001000200089
:1032700001003e000000200007f0a7000000ea0067
:103280004f06be004f05be004f04be000000060002
:10329000e48240001078a30007003200640240007e
:1032a0001178a3003400be001401be0004003200f7
:1032b0000330a700000006003500be001501be0067
:1032c0000330a0000000060005ff27000582610012
:1032d000070032000428e10001003200240005004c
:1032e0000600070001003a0044000500040805003c
:1032f00002000700f9ff3a00140005006f82610028
:1033000081027000850271008502720000000600d3
:10331000800078005002be005003be004439de0039
:10332000f700b200f37f20000301610009003200c2
:103330000218e10016003a00850172008301730053
:10334000838173000008200015003a00400020002f
:1033500013003700850172008301730083817300bd
:1033600005003a0004a8be0006a8be001000200018
:103370000b0037000201e9000402420085824a0086
:1033800006034b0087834b000748a300f9ff320078
:103390000740a00004a8be0006a8be002000200030
:0c33a000800098009200980000000600d9
:020000040000fa
:1000080090020000900200009002000090020000a0
:100018009002000090020000900200009002000090
:100028009002000090020000900200000c220000e4
:100038009002000090020000900200004822000098
:10004800900200009002000090020000a821000029
:100058009002000090020000900200009002000050
:100068009002000090020000900200009002000040
:10007800ac220000900200009002000090020000f4
:100088009002000090020000900200009002000020
:10009800900200002c230000900200009002000053
:1000a8009002000090020000900200009002000000
:1000b80090020000900200009002000090020000f0
:1000c80090020000900200009002000090020000e0
:1000d80090020000900200009002000090020000d0
:1000e80090020000900200009002000090020000c0
:1000f80090020000900200009002000090020000b0
:10010800900200009002000090020000900200009f
:10011800900200009002000090020000900200008f
:10012800900200009002000090020000900200007f
:10013800900200009002000090020000900200006f
:10014800900200009002000090020000900200005f
:10015800900200009002000090020000900200004f
:10016800900200009002000090020000900200003f
:10017800900200009002000090020000900200002f
:10018800900200009002000090020000900200001f
:10019800900200009002000090020000900200000f
:1001a80090020000900200009002000090020000ff
:1001b80090020000900200009002000090020000ef
:1001c80090020000900200009002000090020000df
:1001d80090020000900200009002000090020000cf
:1001e80090020000900200009002000090020000bf
:0801f8009002000090020000db
:020000040000fa
:10020800900200009002000090020000900200009e
:10021800900200009002000090020000900200008e
:100228009002000090020000900200000c220000e2
:100238009002000090020000900200004822000096
:10024800900200009002000090020000a821000027
:10025800900200009002000090020000900200004e
:10026800900200009002000090020000900200003e
:10027800ac220000900200009002000090020000f2
:10028800900200009002000090020000900200001e
:10029800900200002c230000900200009002000051
:1002a80090020000900200009002000090020000fe
:1002b80090020000900200009002000090020000ee
:1002c80090020000900200009002000090020000de
:1002d80090020000900200009002000090020000ce
:1002e80090020000900200009002000090020000be
:1002f80090020000900200009002000090020000ae
:10030800900200009002000090020000900200009d
:10031800900200009002000090020000900200008d
:10032800900200009002000090020000900200007d
:10033800900200009002000090020000900200006d
:10034800900200009002000090020000900200005d
:10035800900200009002000090020000900200004d
:10036800900200009002000090020000900200003d
:10037800900200009002000090020000900200002d
:10038800900200009002000090020000900200001d
:10039800900200009002000090020000900200000d
:1003a80090020000900200009002000090020000fd
:1003b80090020000900200009002000090020000ed
:1003c80090020000900200009002000090020000dd
:1003d80090020000900200009002000090020000cd
:1003e80090020000900200009002000090020000bd
:0803f8009002000090020000d9
:020000040000fa
:1033ac00cdcc00004c3d0000cdcc0000cc3e00004c
:1033bc0000000000c03f0000522000003830000028
:1033cc002c320000343000002c310000303400006e
:1033dc002c320000363400002c3200003535000051
:1033ec002c320000353500002c3200003535000041
:1033fc002c3100000d000000662000002564000048
:10340c002c380000302c000032340000300d00004d
:10341c0000660000206900006e740000c7c3000045
:10342c00b7a10000b1d7000020250000642c0000db
:10343c0039390000392c000039390000390d0000f1
:10344c0000660000206900006e740000c6f70000e2
:10345c00c6ae000020250000642c000039390000a5
:10346c00392c000039390000390d000000520000e1
:10347c00203000002c3000002c34000038300000cc
:10348c002c320000373200002c32000035350000a1
:10349c002c320000353500002c3200003535000090
:1034ac002c3100000d000000692000005445000084
:1034bc0053540000494e0000472f0000496e000095
:1034cc006e650000725600006f6c000074540000b2
:1034dc0065730000746900006e6700002e700000b8
:1034ec006e6700002c3000002c3000000d00000036
:1034fc00692000004d4500004e5500002f4d000086
:10350c006f640000654d0000656e0000752e0000b4
:10351c00706e0000672c0000302c0000300d000095
:10352c000069000020450000544300002f560000a5
:10353c006f6c0000744700006f6f0000642e000079
:10354c00706e0000672c0000302c0000300d000065
:10355c000069000020450000544300002f42000089
:10356c006974000043680000656300006b2e000066
:10357c00706e0000672c000033320000352c000008
:10358c00300d000000690000204500005252000080
:10359c004f5200002f4900006e6e00006572000053
:1035ac00566f00006c74000046610000696c0000ee
:1035bc002e7000006e6700002c3000002c300000d4
:1035cc000d000000692000004d4500004e55000024
:1035dc002f530000656c00006654000065730000fa
:1035ec00744d0000656e0000752e0000706e0000ba
:1035fc00672c0000302c0000300d0000006900002a
:10360c0020450000544300002f4300006865000073
:10361c00636b00002e7000006e6700002c320000ff
:10362c00333300002c370000330d0000006900001c
:10363c0020450000544300002f4300006865000043
:10364c00636b00005f2e0000706e0000672c0000a2
:10365c0032360000302c0000373500000d00000021
:10366c006920000045540000432f0000436800000f
:10367c00656300006b2e0000706e0000672c00006c
:10368c0032330000332c0000393600000d000000ee
:10369c006920000045540000432f000043680000df
:1036ac00656300006b5f00002e7000006e67000009
:1036bc002c320000363000002c390000370d000091
:1036cc000069000020450000544300002f43000017
:1036dc0068650000636b00002e7000006e670000d0
:1036ec002c320000333300002c3100003138000044
:1036fc000d0000006920000045540000432f00001d
:10370c0043680000656300006b5f00002e700000d2
:10371c006e6700002c320000363000002c310000a7
:10372c00323000000d0000006920000045540000fc
:10373c00432f0000486900006e7400002e700000da
:10374c006e6700002c3000002c3200003035000079
:10375c000d000000692000004d4500004e55000092
:10376c002f4c0000696e000065540000657300006a
:10377c00744d0000656e0000752e0000706e000028
:10378c00672c0000302c0000300d00000069000098
:10379c0020450000544300002f43000068650000e2
:1037ac00636b00002e7000006e6700002c3100006f
:1037bc00393700002c370000330d00000069000081
:1037cc0020450000544300002f43000068650000b2
:1037dc00636b00005f2e0000706e0000672c000011
:1037ec0032320000332c0000373500000d00000091
:1037fc006920000045540000432f0000436800007e
:10380c00656300006b2e0000706e0000672c0000da
:10381c0031390000372c0000393600000d00000053
:10382c006920000045540000432f0000436800004d
:10383c00656300006b5f00002e7000006e67000077
:10384c002c320000323300002c390000370d000000
:10385c000069000020450000544300002f43000085
:10386c0068650000636b00002e7000006e6700003e
:10387c002c310000393700002c31000031380000a9
:10388c000d0000006920000045540000432f00008b
:10389c0043680000656300006b5f00002e70000041
:1038ac006e6700002c320000323300002c31000017
:1038bc00323000000d00000069200000455400006b
:1038cc00432f000043680000656300006b2e00006e
:1038dc00706e0000672c000031390000372c00009e
:1038ec0031340000300d000000690000204500005c
:1038fc00544300002f43000068650000636b000018
:10390c005f2e0000706e0000672c00003232000049
:10391c00332c000031340000320d0000006900002f
:10392c0020450000544300002f4300006865000050
:10393c00636b00002e7000006e6700002c310000dd
:10394c00393700002c310000363200000d00000029
:10395c006920000045540000432f0000436800001c
:10396c00656300006b5f00002e7000006e67000046
:10397c002c320000323300002c31000036340000b1
:10398c000d0000006920000045540000432f00008a
:10399c0043680000656300006b2e0000706e000031
:1039ac00672c000031390000372c00003138000042
:1039bc00340d000000690000204500005443000055
:1039cc002f43000068650000636b00005f2e000051
:1039dc00706e0000672c000032320000332c0000a7
:1039ec0031380000360d0000006900002045000051
:1039fc00544300002f43000068650000636b000017
:103a0c002e7000006e6700002c310000393700006a
:103a1c002c320000303700000d000000692000003f
:103a2c0045540000432f000043680000656300000c
:103a3c006b5f00002e7000006e6700002c320000df
:103a4c00323300002c320000303900000d00000031
:103a5c006920000045540000432f0000436800001b
:103a6c00656300006b2e0000706e0000672c000078
:103a7c0034340000302c0000373300000d000000ff
:103a8c006920000045540000432f000043680000eb
:103a9c00656300006b5f00002e7000006e67000015
:103aac002c340000363500002c370000350d00009a
:103abc000069000020450000544300002f43000023
:103acc0068650000636b00002e7000006e670000dc
:103adc002c340000343000002c390000350d00006f
:103aec000069000020450000544300002f430000f3
:103afc0068650000636b00005f2e0000706e0000b4
:103b0c00672c000034360000352c000039370000db
:103b1c000d0000006920000045540000432f0000f8
:103b2c00486900006e7400005f3100002e700000c8
:103b3c006e6700002c320000343000002c31000085
:103b4c00373500000d0000006920000045540000ce
:103b5c00432f00004c6100006e4300006f6e0000ac
:103b6c006e650000637400002e7000006e6700002c
:103b7c002c310000363500002c3000000d00000008
:103b8c006920000052650000737500006c74000021
:103b9c002f5200006573000069640000756100001d
:103bac006c5600006f6c00007452000065730000ce
:103bbc00756c0000742e0000706e0000672c000005
:103bcc00302c0000300d000000660000204f00007b
:103bdc002c250000642c0000256400000d00000062
:103bec0066200000582c0000256400002c250000e5
:103bfc00640d000000690000205200006573000095
:103c0c00756c0000745f0000442f000052650000ca
:103c1c007369000064750000616c0000566f000051
:103c2c006c74000052650000737500006c74000029
:103c3c005f4400002e7000006e6700002c30000006
:103c4c002c3000000d00000066200000252e000026
:103c5c00326600002c250000642c00002564000056
:103c6c000d00000069200000526500007375000013
:103c7c006c7400002f4900006e730000756c00001e
:103c8c0052650000737500006c7400002e7000000b
:103c9c006e6700002c3000002c3000000d0000007e
:103cac006920000052650000737500006c74000000
:103cbc005f4400002f4900006e730000756c00001b
:103ccc0052650000737500006c7400005f440000c6
:103cdc002e7000006e6700002c3000002c300000ad
:103cec000d00000069200000526500007375000093
:103cfc006c7400002f530000686f00007274000099
:103d0c0052650000737500006c7400002e7000008a
:103d1c006e6700002c3000002c3000000d000000fd
:103d2c006920000052650000737500006c7400007f
:103d3c005f4400002f530000686f00007274000095
:103d4c0052650000737500006c7400005f44000045
:103d5c002e7000006e6700002c3000002c3000002c
:103d6c000d000000692000004d4500004e5500007c
:103d7c002f46000069720000655400006573000056
:103d8c00744d0000656e0000752e0000706e000012
:103d9c00672c0000302c0000300d00000069000082
:103dac002054000045530000544900004e470000c9
:103dbc002f520000657300006964000075610000fb
:103dcc006c54000065730000746900006e6700009d
:103ddc002e7000006e6700002c3000002c300000ac
:103dec000d000000692000005445000053540000f1
:103dfc00494e0000472f0000536800006f7200000e
:103e0c007454000065730000746900006e67000054
:103e1c002e7000006e6700002c3000002c3000006b
:103e2c000d000000692000005445000053540000b0
:103e3c00494e0000472f0000496e000073750000ca
:103e4c006c54000065730000746900006e6700001c
:103e5c002e7000006e6700002c3000002c3000002b
:103e6c000d000000692000004d4500004e5500007b
:103e7c002f46000069720000654500006163000078
:103e8c006854000065730000744d0000656e0000fe
:103e9c00755f0000312e0000706e0000672c000072
:103eac00302c0000300d000000690000204d000097
:103ebc00454e0000552f0000466900007265000059
:103ecc00546f0000746100006c54000065730000b6
:103edc00744d0000656e0000755f0000312e00000f
:103eec00706e0000672c0000302c0000300d0000bc
:103efc0000690000204d0000454e0000552f0000c9
:103f0c0046690000726500004561000063680000ae
:103f1c0054650000737400004d6500006e75000060
:103f2c005f3200002e7000006e6700002c30000025
:103f3c002c3000000d000000692000004d450000f1
:103f4c004e5500002f4600006972000065540000b9
:103f5c006f740000616c0000546500007374000005
:103f6c004d6500006e7500005f3200002e70000081
:103f7c006e6700002c3000002c3000000d0000009b
:103f8c006920000052650000737500006c7400001d
:103f9c002f4d0000534c00004558000054500000b9
:103fac00575200002e7000006e6700002c3000008d
:103fbc002c3000000d00000069200000526500004c
:103fcc00737500006c7400002f5400004553000002
:103fdc00544500005854000050570000522e000069
:103fec00706e0000672c0000302c0000300d0000bb
:103ffc00006900002052000065730000756c000021
:10400c00742f00004542000053510000422e000066
:10401c00706e0000672c0000302c0000300d00008a
:10402c00006900002052000065730000756c0000f0
:10403c00742f000042410000545300005142000014
:10404c002e7000006e6700002c3000002c30000039
:10405c000d0000006920000052650000737500001f
:10406c006c7400002f4100004241000054530000ca
:10407c00514200002e7000006e6700002c300000d2
:10408c002c3000000d00000069200000526500007b
:10409c00737500006c7400002f4200004455000042
:1040ac0053510000422e0000706e0000672c00007f
:1040bc00302c0000300d0000006900002052000080
:1040cc0065730000756c0000742f000041520000f5
:1040dc004d4900004e4700002e7000006e67000036
:1040ec002c3000002c3000000d0000006920000076
:1040fc0052650000737500006c7400002f490000bd
:10410c004e540000415200004d4900004e47000043
:10411c002e7000006e6700002c3000002c30000068
:10412c000d0000006920000052650000737500004e
:10413c006c7400002f4900004e54000053510000d5
:10414c00422e0000706e0000672c0000302c000026
:10415c00300d0000007800000025000064200000f5
:10416c003a200000536500006e640000746f00007c
:10417c0020460000616900006c2e00006c65000098
:10418c006e3d0000256400002c000000256400003a
:10419c002e250000642e0000256400002e25000052
:1041ac006428000025640000290d00000a000000ae
:1041bc00c0a800006f4e000000080000dc000000ea
:1041cc006fc80000ffff0000ff000000c0a8000047
:1041dc006f010000c0a800006fc8000008080000b4
:1041ec000808000008080000080800000808000083
:1041fc000808000008080000080800004d450000f1
:10420c004d4f000052590000204300004f4e00005b
:10421c00464900004720000045520000522e000085
:10422c000d0a00000053000048410000522000001d
:10423c003a20000025300000327800003a250000ba
:10424c0030320000783a000025300000327800004f
:10425c003a25000030320000783a0000253000008a
:10426c00327800003a25000030320000780d000052
:10427c000a0000004757000052200000203a0000be
:10428c0020250000642e0000256400002e2500006f
:10429c00642e0000256400000d0a0000005300008d
:1042ac0055420000522000003a2000002564000016
:1042bc002e250000642e0000256400002e25000031
:1042cc00640d00000a000000534900005052000029
:1042dc00203a000020250000642e00002564000018
:1042ec002e250000642e0000256400000d0a00003d
:1042fc000000000008000000090000000a00000097
:10430c000f0000000000000001000000020000008f
:10431c000400000008000000100000002000000055
:10432c0040000000800000000000000001000000c0
:10433c000400000044000000060000000300000020
:04434c000500000068
:020000040000fa
:104350003600f800809fbe00829fbe00849fbe0092
:10436000869fbe00881f78003400f80000002000ff
:10437000a00188000200fa008560a90065c8bf009e
:104380000084fb0068f0070064e8b7004186200065
:10439000914078000080200000004400014878002f
:1043a00065c8bf000040e80065e8b70006010700e7
:1043b00022c2bf00624060000004e0000d00320035
:1043c0002222a9000040eb00004f780006003700d1
:1043d0009e80fb0000802000808040000040eb00b9
:1043e000804878001e4fe80030c6b3009e4f100092
:1043f000f7ff36000080fa003400f9004f0478001f
:104400004f03be004f02be004f01be004f00be0072
:104410003600f900004006003600f800809fbe001c
:10442000829fbe00849fbe00869fbe003400f800bd
:1044300000002000a00188000000fa008460a900ac
:10444000605f80000000e800605f8800605f8000bf
:10445000e20f500001003a0086050700605f80000f
:10446000e60f500002003a000000eb00605f880099
:104470000080fa003400f9004f03be004f02be0076
:104480004f01be004f00be003600f900004006009c
:104490003600f800809fbe00829fbe00849fbe0051
:1044a000869fbe003400f80000002000a0018800b4
:1044b0000000fa0084e0a900905f80000000e8009e
:1044c000905f8800dac2bf00684060000004e0002e
:1044d00003003a00905f8000705f880002003700a0
:1044e0000000eb00905f8800705f8000ec0f5000d0
:1044f0001100360011e1a9000000eb00705f880098
:1045000000cbbf00e14f500002003a0096060700c2
:104510000900370001cbbf00e14f500002003a0014
:10452000a60807000400370002cbbf00e14f50008f
:1045300001003a009e0707000080fa003400f900ed
:104540004f03be004f02be004f01be004f00be0031
:104550003600f900004006003600f800809fbe00db
:10456000829fbe00849fbe00869fbe000000fa00ae
:10457000dac2bf00614060000004e00003003a00be
:10458000505f80000000e800505f8800dac2bf0082
:10459000624060000004e00002003a0020002000b9
:1045a000505f8800dac2bf00644060000004e00091
:1045b00002003a0030002000505f8800dac2bf00dd
:1045c000684060000004e00007003a00505f80008f
:1045d0000000e0000400320010002000505088006d
:1045e000505f8000d0608800805080000000e000b4
:1045f00004003a00209e2900801f78005bf107002c
:104600008f87e900505f80000000e0000900320061
:10461000805080000000e00006003a00505f8000fb
:10462000801f780020a02900801f78004ff107002c
:10463000e48757008680a90087a0a9000080fa00bf
:104640004f03be004f02be004f01be004f00be0030
:104650003600f900004006003600f800809fbe00da
:10466000829fbe00849fbe00869fbe000000fa00ad
:10467000dac2bf00704060000004e00019003a0098
:10468000dac2bf000080fb004400de000004a2008c
:104690000080fb0061006000605088000000eb00bb
:1046a000505f880060508000801f7800f0a02900d3
:1046b000801f78002df10700e4875700dac2bf00a1
:1046c0000080fb004400de00614060000080fb00d1
:1046d000801f780070a22900801f780023f1070056
:1046e000e4875700dac2bf000042b2000004e000d5
:1046f00007003a00505f80000000e0000400320034
:104700001000200080508800505f8000d06088003a
:104710008680a90087a0a9000080fa004f03be0090
:104720004f02be004f01be004f00be003600f90030
:10473000004006000000fa00dac2bf0061406000dd
:104740000080fb0060608800dac2bf000080fb00d0
:104750000000d100614060000080fb0070608800b4
:10476000dac2bf000080fb004200de006140600052
:104770000080fb0080608800dac2bf000080fb0080
:104780004300de00614060000080fb009060880014
:10479000dac2bf000080fb004400de006140600020
:1047a0000080fb00a0608800dac2bf000080fb0030
:1047b0004500de00614060000080fb00b0608800c2
:1047c0000080fa00000006000800fa0064c8bf007c
:1047d0000080fb00300798003e009000e50f50007d
:1047e0005a003200be009000e58f500011003c00de
:1047f0003e009000e20f500027003200be00900003
:10480000e28f500004003c003e009000e10f500099
:1048100015003200c5003700be009000e38f500045
:10482000290032003e009000e40f500032003200b8
:10483000be003700be009000e78f500073003200ca
:104840003e009000e70f500058003500be00900079
:10485000e88f5000850032003e009000e90f5000c4
:104860009a003200b1003700209e2900801f780096
:10487000bef007008f87e90064c8bf000080fb001e
:10488000801f780020a02900801f7800b7f0070063
:10489000e4875700c4003700209e2900801f78005d
:1048a000b2f007008f87e90064c8bf000080fb00fa
:1048b000801f780020a02900801f7800abf007003f
:1048c000e4875700b8003700209e2900801f780039
:1048d000a6f007008f87e90064c8bf000080fb00d6
:1048e000801f780020a02900801f78009ff007001b
:1048f000e4875700ac003700f8cabf00e14f500012
:104900000600320009cbbf00e14f50000300320027
:1049100014cbbf00e14f5000a3003a00209e2900b5
:10492000801f780091f007008f87e90064c8bf00fe
:104930000080fb00801f780020a02900801f7800e5
:104940008af00700e487570097003700eecabf00df
:10495000e14f500009003a00f8cabf00e14f500093
:1049600006003a0009cbbf00e14f500003003a00b7
:1049700014cbbf00e14f50008b003200209e290075
:10498000801f780079f007008f87e90064c8bf00b6
:104990000080fb00801f780020a02900801f780085
:1049a00072f00700e48757007f003700eecabf00af
:1049b000e14f500009003a00f8cabf00e14f500033
:1049c00006003a0009cbbf00e14f500003003a0057
:1049d00014cbbf00e14f500073003200209e29002d
:1049e000801f780061f007008f87e90064c8bf006e
:1049f0000080fb00801f780020a02900801f780025
:104a00005af00700e487570067003700eecabf007e
:104a1000e14f500009003a00f8cabf00e14f5000d2
:104a200006003a0009cbbf00e14f500003003a00f6
:104a300014cbbf00e14f50005b003200209e2900e4
:104a4000801f780049f007008f87e90064c8bf0025
:104a50000080fb00801f780020a02900801f7800c4
:104a600042f00700e48757004f003700eecabf004e
:104a7000e14f500009003a00f8cabf00e14f500072
:104a800006003a0009cbbf00e14f500003003a0096
:104a900014cbbf00e14f500043003200209e29009c
:104aa000801f780031f007008f87e90064c8bf00dd
:104ab0000080fb00801f780020a02900801f780064
:104ac0002af00700e487570037003700eecabf001e
:104ad000e14f500009003a00f8cabf00e14f500012
:104ae00006003a0009cbbf00e14f500003003a0036
:104af00014cbbf00e14f50002b003200209e290054
:104b0000801f780019f007008f87e90064c8bf0094
:104b10000080fb00801f780020a02900801f780003
:104b200012f00700e48757001f00370064c8bf0079
:104b30008000eb0021079800e14f400002003a009e
:104b40001000200020079800ae009000515088000f
:104b500041862000914078000000eb00100798008b
:104b6000b0cbb30080cf500002003a00110020000b
:104b7000110798001e0090006050880041862000b8
:104b8000914078000000eb00000f7800d0cdb3001a
:104b900080cf500002003a0011002000010f780081
:104ba0001e007800805088000080fa000000060097
:104bb0002c00fa00889fbe00d0a32900801f780037
:104bc000eaef07008f87e900a0a52900801f780081
:104bd000e6ef07008f87e9000000370020c3bf0021
:104be000614060000004e000020032002003a900e0
:104bf000faff370000302000000f78000040eb0083
:104c000020479800210037002e4090008080fb0054
:104c10001e0078001001780081804000808620000e
:104c200000804000020878001e8fe8002e409000af
:104c30000082fb002e4090000080fb00c200dd00df
:104c400020872000008040001001be002e40900010
:104c50000080fb0080004000808620000080400033
:104c6000100078000100200002014000838148000c
:104c7000c220dd0020872000008040000288be00a6
:104c80002e4090000040e800204798002e40900001
:104c9000e44f5000dcff3600215f8000800c2000d4
:104ca000808f5000f7003a000040eb00204798004a
:104cb000140037002e4090000084fb002e4090002e
:104cc0000080fb00c200dd00208720000080400043
:104cd0001002be00205f80006101b8000400be0029
:104ce0005bef07000001be00c240dd00208720000e
:104cf000008040000288be002e4090000040e80086
:104d0000204798002e409000e44f5000e9ff360005
:104d100010002000205f8800b0438000c143800065
:104d200040179800511798004e129000de12900024
:104d3000e00f5200e08f5a00060035004e10900040
:104d4000de109000a5ee070020179800311798009c
:104d5000160037004e109000610160006000b8003e
:104d60000300200002007000838070004e1290004b
:104d7000de1290008501d1000481d3000200700092
:104d80008380700095ee0700201798003117980077
:104d90002e119000be1190002e109000be109000b9
:104da000ebed0700201798003117980022db29004f
:104db000f30924002e109000be109000f0ee0700c2
:104dc00002002c00f34724003eee0700f056880056
:104dd00001578800d0438000e1438000001798000d
:104de000111798000e1290009e129000e00f5200d2
:104df000e08f5a00060035000e1090009e109000c3
:104e000076ee0700600f9800710f980016003700cb
:104e10000e109000610160006000b80003002000e7
:104e200002007000838070000e1290009e129000ad
:104e30008501d1000481d3000200700083807000de
:104e400066ee0700600f9800710f98006e099000e1
:104e5000fe0990006e089000fe089000bced07006f
:104e6000600f9800710f980022db2900f3092400dd
:104e70006e089000fe089000c1ee070002002c00b2
:104e8000f34724000fee070002002000030c24006b
:104e9000bbee07001057880021578800f0438000c0
:104ea00001448000400f9800510f98004e0a900076
:104eb000de0a9000e00f5200e08f5a000600350035
:104ec0004e089000de08900044ee0700200f980086
:104ed000310f9800160037004e0890006101600005
:104ee0006000b800030020000200700083807000a2
:104ef0004e0a9000de0a90008501d1000481d300a3
:104f0000020070008380700034ee0700200f9800cc
:104f1000310f98002e099000be0990002e089000d5
:104f2000be0890008aed0700200f9800310f98000e
:104f300022db2900f30924002e089000be0890000f
:104f40008fee070002002c00f3472400dded070080
:104f500002002000030c240089ee0700305788006f
:104f6000415788001044800021448000000f9800c1
:104f7000110f98000e0a90009e0a9000e00f520058
:104f8000e08f5a00060035000e0890009e08900041
:104f900012ee0700600798007107980016003700ae
:104fa0000e089000610160006000b800030020005e
:104fb00002007000838070000e0a90009e0a90002c
:104fc0008501d1000481d30002007000838070004d
:104fd00002ee070060079800710798006e019000cc
:104fe000fe0190006e009000fe00900058ed07005a
:104ff000600798007107980022db2900f30924005c
:105000006e009000fe0090005dee070002002c0094
:10501000f3472400abed070002002000030a2c0038
:1050200057ee07005057880061578800f8568000f7
:1050300009578000b2ce8400c3ce8400f026210040
:105040003108240041ed07000001be008042eb0062
:10505000354f98000800be00deed07000000e000bc
:1050600001003d000200370010c0b300304f98002f
:105070003e4890000004a2000004e0001e003a0038
:1050800004003700205f80000000e800205f8800f7
:10509000d2fe3700f856800009578000b0ce840059
:1050a000c1ce8400f22621003308240028ed070039
:1050b0000001be008040eb00214f98000800be00b8
:1050c000c2ed07000000e0000100340002003700dc
:1050d00014c0b300244f98002e4890000004a20092
:1050e0000004e00004003a00dccabf000004a00095
:1050f000dceab70004003700dccabf00e1cfb30030
:1051000001406000dceab700185780002957800092
:10511000d2ce8400e3ce840000002000010a2400e7
:105120000aed07000001be008042eb00154f980019
:105130000800be00a7ed07000000e00001003d00f0
:105140000200370010c0b300104f98001e489000b6
:105150000004a2000004e00019003a001857800083
:1051600029578000d0ce8400e1ce840002002000c8
:10517000030a2400f6ec07000001be008040eb00ab
:10518000014f98000800be0090ed07000000e0000d
:10519000010034000200370014c0b300044f98002f
:1051a0000e4890000004a2000004e00004003a0051
:1051b000dccabf000014a000dceab700040037001e
:1051c000dccabf00d1cfb30001406000dceab70009
:1051d0003857800049578000f2ce840003cf840006
:1051e0000000200001172400d8ec07000001be00d9
:1051f0008042eb00754798000800be0075ed07007f
:105200000000e00001003d000200370010c0b300c4
:10521000704798007e4090000004a2000004e00067
:1052200019003a003857800049578000f0ce8400ba
:1052300001cf84000200200003172400c4ec070003
:105240000001be008040eb00614798000800be00ee
:105250005eed07000000e0000100340002003700ae
:1052600014c0b300644798006e4090000004a20090
:105270000004e00004003a00dccabf000024a000e3
:10528000dceab70004003700dccabf00b1cfb300ce
:1052900001406000dceab700585780006957800081
:1052a000f2ce840003cf84000000200001172c0000
:1052b000a6ec07000001be008042eb0055479800b5
:1052c0000800be0043ed07000000e00001003d00c3
:1052d0000200370010c0b300504798005e409000b5
:1052e0000004a2000004e00019003a0058578000b2
:1052f00069578000f0ce840001cf840002002000b6
:105300000317240091ec07000001be008040eb0071
:10531000414798000800be002ced07000000e000a7
:10532000010034000200370014c0b3004447980065
:105330004e4090000004a2000004e00004003a0087
:10534000dccabf000034a000dceab700040037006c
:10535000dccabf0071cfb30001406000dceab700d7
:10536000dccabf00ef4f50001c003a00e0a7290044
:10537000801f7800fded07008f87e90010c0b300a3
:10538000eeeab70070a92900801f7800f7ed07004a
:105390008f87e90010c0b300f6eab700dac2bf0099
:1053a0000044b2000004e00014003a00f0aa290012
:1053b000801f7800eded07008f87e90010c0b30073
:1053c000f7eab7000000eb00b70e07008000eb0023
:1053d00080bb2000a01107000800370090ac290016
:1053e000801f7800e1ed07008f87e90010c0b3004f
:1053f000efeab7000040eb00dceab7004f04be0064
:105400000080fa00000006000200fa000040eb00f5
:10541000004f7800060037009e80fb0000802000cf
:10542000808040000040eb00804878001e4fe8007c
:1054300030c6b3009e4f1000f7ff36000040eb006f
:1054400065e8b7000040eb0064e8b700e0ae20007c
:10545000f20420008000eb00bded0700a2a02000b8
:105460006000b8000089be00640141006000b8001f
:105470000089be00640141000000eb0000097800d3
:1054800040a12000820c20008000eb00b0ed07005e
:10549000c2ad20006000b8000089be006401410078
:1054a0006000b8000089be00640141006000b800df
:1054b0000089be00640141006000b8000089be00a0
:1054c000640141000000eb00000978000080fa0050
:1054d000000006000600fa00100798000040eb00ec
:1054e000004f78001e009000200798002e009000ca
:1054f000e20f50003e0032002e009000e20f5000fc
:1055000004003e002e009000e10f50000800320021
:10551000560137002e009000e30f50006400320067
:105520002e009000e40f5000d90032004f013700e8
:1055300080ae2900801f78008ced07008f87e9007e
:1055400080010700f9cabf00e14f500009003a008e
:1055500050b02900801f780084ed07008f87e90094
:10556000d0b12900801f780080ed07008f87e90007
:105570001e4fe800facabf00e14f500009003a0090
:1055800060b32900801f780078ed07008f87e9005d
:10559000e0b42900801f780074ed07008f87e900d0
:1055a0001e4fe800fbcabf00e14f500009003a005f
:1055b00070b62900801f78006ced07008f87e90026
:1055c00000b82900801f780068ed07008f87e90088
:1055d0001e4fe8001e04e00024013200a0b929009b
:1055e000801f780061ed07008f87e9001f013700f9
:1055f00000bb2900801f78005ced07008f87e90061
:10560000500107000acbbf00e14f500009003a00eb
:1056100050b02900801f780054ed07008f87e90003
:10562000d0b12900801f780050ed07008f87e90076
:105630001e4fe8000bcbbf00e14f500009003a00bd
:1056400060b32900801f780048ed07008f87e900cc
:10565000e0b42900801f780044ed07008f87e9003f
:105660001e4fe8000ccbbf00e14f500009003a008c
:1056700070b62900801f78003ced07008f87e90095
:1056800000b82900801f780038ed07008f87e900f7
:105690001e4fe8001e04e000f4003200a0b929000b
:1056a000801f780031ed07008f87e900ef00370099
:1056b0002401070019cbbf00e14f500009003a0058
:1056c000d0bc2900801f780028ed07008f87e900f3
:1056d00050be2900801f780024ed07008f87e90065
:1056e0001e4fe8001acbbf00e14f500009003a00fe
:1056f000e0bf2900801f78001ced07008f87e900bc
:1057000060c12900801f780018ed07008f87e9002d
:105710001e4fe8001bcbbf00e14f500009003a00cc
:10572000f0c22900801f780010ed07008f87e90084
:1057300080c42900801f78000ced07008f87e900e6
:105740001e4fe8001ccbbf00e14f500009003a009b
:1057500020c62900801f780004ed07008f87e9002c
:10576000b0c72900801f780000ed07008f87e9008f
:105770001e4fe8001dcbbf00e14f500009003a006a
:1057800050c92900801f7800f8ec07008f87e900d6
:10579000e0ca2900801f7800f4ec07008f87e90039
:1057a0001e4fe8001ecbbf00e14f500009003a0039
:1057b00080cc2900801f7800ecec07008f87e9007f
:1057c00010ce2900801f7800e8ec07008f87e900e1
:1057d0001e4fe8001fcbbf00e14f500009003a0008
:1057e000b0cf2900801f7800e0ec07008f87e90028
:1057f00040d12900801f7800dcec07008f87e9008a
:105800001e4fe80020cbbf00e14f500009003a00d6
:10581000e0d22900801f7800d4ec07008f87e900d0
:1058200060d42900801f7800d0ec07008f87e90042
:105830001e4fe80021cbbf00e14f500009003a00a5
:10584000f0d52900801f7800c8ec07008f87e90099
:1058500070d72900801f7800c4ec07008f87e9000b
:105860001e4fe8001e04e0000400320000d92900a9
:10587000801f7800bdec07008f87e900209e29007b
:10588000801f7800b9ec07008f87e90077003700a8
:10589000ac0007002bcbbf00e14f500009003a00dd
:1058a000d0bc2900801f7800b0ec07008f87e9008a
:1058b00050be2900801f7800acec07008f87e900fc
:1058c0001e4fe8002ccbbf00e14f500009003a000a
:1058d000e0bf2900801f7800a4ec07008f87e90053
:1058e00060c12900801f7800a0ec07008f87e900c5
:1058f0001e4fe8002dcbbf00e14f500009003a00d9
:10590000f0c22900801f780098ec07008f87e9001b
:1059100080c42900801f780094ec07008f87e9007d
:105920001e4fe8002ecbbf00e14f500009003a00a7
:1059300020c62900801f78008cec07008f87e900c3
:10594000b0c72900801f780088ec07008f87e90026
:105950001e4fe8002fcbbf00e14f500009003a0076
:1059600050c92900801f780080ec07008f87e9006c
:10597000e0ca2900801f78007cec07008f87e900cf
:105980001e4fe80030cbbf00e14f500009003a0045
:1059900080cc2900801f780074ec07008f87e90015
:1059a00010ce2900801f780070ec07008f87e90077
:1059b0001e4fe80031cbbf00e14f500009003a0014
:1059c000b0cf2900801f780068ec07008f87e900be
:1059d00040d12900801f780064ec07008f87e90020
:1059e0001e4fe80032cbbf00e14f500009003a00e3
:1059f000e0d22900801f78005cec07008f87e90067
:105a000060d42900801f780058ec07008f87e900d8
:105a10001e4fe80033cbbf00e14f500009003a00b1
:105a2000f0d52900801f780050ec07008f87e9002f
:105a300070d72900801f78004cec07008f87e900a1
:105a40001e4fe8001e04e0000400320000d92900c7
:105a5000801f780045ec07008f87e900209e290011
:105a6000801f780041ec07008f87e9000080fa0072
:105a7000000006000400fa000000eb001007980088
:105a80000000eb00000f780027000700405f800057
:105a90006700600010079800405f80004300de0050
:105aa000000f78001e00900080004000a0182a001f
:105ab0000080400010007800a0168800000d8500ce
